:100000000C9498010C94C0010C94C0010C94C00194
:100010000C94C0010C94C0010C94C0010C94C0015C
:100020000C94C0010C94C0010C94C0010C94C0014C
:100030000C94C0010C94C0010C94C0010C94C0013C
:100040000C94C3040C94C0010C94F7110C94D111BE
:100050000C94C0010C94C0010C94C0010C94C0011C
:100060000C9499050C94C001BD13D313D313D11371
:10007000D313BB13D313D313D313AF13D313D3138C
:10008000C413CF13CD13D313D313D313CB1344659E
:1000900063656D626572004E6F76656D62657200B4
:1000A0004F63746F6265720053657074656D62654D
:1000B00072004A756C79004A756E65004D61790071
:1000C000417072696C004D617263680046656275CB
:1000D00072617279004A616E756172790053617460
:1000E000757264617900467269646179005468755B
:1000F0007273646179005765646E65736461790039
:1001000054756573646179004D6F6E646179005355
:10011000756E64617900D500CC00C600C000BC00DB
:10012000B700B200A800A00097008E000F010801E0
:100130000001F600ED00E600DD00207965617273D4
:1001400000207765656B7300206461797300206817
:100150006F75727300206D696E757465730020731E
:1001600065636F6E647300556E697854696D6520C0
:1001700028312F312F31393730293A00436F6D6DD7
:10018000616E64733A0D0A2074203D207072696EAE
:1001900074207468652074696D650D0A2064203DC3
:1001A000207072696E742074686520646174650DD6
:1001B0000A2075203D207072696E742066756C6C23
:1001C00020756E69782074696D650D0A2073203D75
:1001D0002061646A7573742074696D6520696E208E
:1001E0007365636F6E64730D0A2059203D2073653B
:1001F000742074686520796561720D0A204D203D78
:100200002073657420746865206D6F6E74680D0AC4
:100210002044203D207365742074686520646179F2
:100220000D0A206D203D2061646A75737420627927
:100230002074686973206D616E79206D696E7574C4
:1002400065730D0A2068203D2061646A757374200F
:1002500062792074686973206D616E7920686F75AA
:1002600072730D0A2066203D207072696E742066DC
:10027000756C6C206461746520616E642074696DB6
:10028000650D0A00556E6B6E6F776E20636F6D6D36
:10029000616E643A2000207365636F6E64732E0094
:1002A00041646A75737465642074696D6520627950
:1002B00020001F1C1F1E1F1E1F1F1E1F1E1F0000B1
:1002C0000000250028002B00040404040404040496
:1002D00002020202020203030303030301020408F1
:1002E00010204080010204081020010204081020A0
:1002F00000000008000201000003040700000000E5
:100300000000000031363A35303A3235004D617226
:100310002031342032303138005254432069732068
:100320004E4F542072756E6E696E67210000571231
:1003300011241FBECFEFD8E0DEBFCDBF24E0A4E381
:10034000B2E001C01D92A731B207E1F712E0A0E0D0
:10035000B1E0E4E4F3E302C005900D92A433B107E9
:10036000D9F711E0C8E9D1E004C02197FE010E944D
:100370008E17C739D107C9F70E94BE120C94A01975
:100380000C940000CF92DF92EF92FF92CF93DF9315
:10039000EC01CB01BA01605873448D4698432CE3BD
:1003A000C22ED12CE12CF12CA70196010E946C17D2
:1003B0006D83CA01B901A70196010E946C176C8375
:1003C000CA01B90128E130E040E050E00E946C171A
:1003D0006B83188263E97EEF8881482F437091E038
:1003E00009F090E0492F50E0FA01E359FE4F2E1733
:1003F0003F0740F0FB01E41BF50B2E0F3F1F8F5F03
:100400008883EACF81E089838981E82FF0E0EF5487
:10041000FD4FE491992319F0823009F4EF5FF0E089
:100420002E173F0720F02E1B3F0B8F5FECCF2F5F67
:100430002A83DF91CF91FF90EF90DF90CF900895C6
:10044000803D27E0920710F0805D974050E0E2EB9E
:10045000F2E021E02E1B322F3E0F361728F43491A4
:10046000430F511D3196F7CF633038F09C01237054
:100470003327232B11F44F5F5F4F2DE631E0829F2E
:10048000B001839F700D929F700D1124615071090E
:100490009C012D5F3F4F3695279536952795CB01CB
:1004A000820F931F840F951F0895EF92FF920F9371
:1004B0001F93CF93DF93EC0188814A81698190E09B
:1004C0000E9420029C01A8E1B0E00E9425162B8129
:1004D0007B018C01E20EF11C011D111DA801970189
:1004E000ACE3B0E00E94E3152C817B018C01E20EAD
:1004F000F11C011D111DA80197010E94E3152D811A
:10050000DC01CB01820F911DA11DB11DBC01CD01EC
:1005100060587C4B8249974CDF91CF911F910F918E
:10052000FF90EF90089585ED8093BC008091BC0012
:1005300084FDFCCF1092E602089540917402262FAC
:1005400030E0240F311D21323105DCF42091E60228
:100550002430C9F4FC0180E090E0861758F4309113
:1005600074022191DC01AE5ABD4FA30FB11D2C9333
:100570000196F3CF80917402680F6093740280E05B
:10058000089581E0089582E008950895E0919F0222
:1005900080919E02E81730F4F0E0E056FD4F808134
:1005A00090E008958FEF9FEF089590919F028091C2
:1005B0009E02981750F4E92FF0E0E056FD4F20819D
:1005C00030E09F5F90939F0202C02FEF3FEFC90181
:1005D000089580919E0290E020919F02821B9109D4
:1005E0000895CF92DF92EF92FF920F931F93CF93D4
:1005F000DF937C01262F972F8A018091E7028823C1
:1006000091F0C62FD72F6E01C40ED51ECC15DD0577
:1006100071F06991D701ED91FC910190F081E02D8D
:10062000C7010995F3CF642F822F0E949D02C80154
:10063000DF91CF911F910F91FF90EF90DF90CF90BE
:100640000895CF93DF931F92CDB7DEB769832091D2
:10065000E7022223D1F020910A03203240F021E06A
:1006600030E0FC013383228380E090E015C080916C
:10067000E802E82FF0E0E751FD4F998190838F5F0A
:100680008093E80280930A0305C061E0CE010196E1
:100690000E949D0281E090E00F90DF91CF9108953C
:1006A000CF92DF92EF92FF920F931F93CF93DF933E
:1006B0007C016B0100E010E0C0E0D0E0D7011296B1
:1006C000ED91FC911397E00FF11F6491662369F09F
:1006D000D601ED91FC910190F081E02DC6010995C4
:1006E000C80FD91F0F5F1F4FE9CFCE01DF91CF9108
:1006F0001F910F91FF90EF90DF90CF900895FC0134
:100700008481958126813781A9014F5F5F4F57838F
:100710004683FC01E20FF31F608381E090E00895BF
:10072000DC011C968D919C911D97DC01ED91FC9153
:100730000190F081E02D0994DC011C968D919C9133
:100740001D97DC01ED91FC910284F385E02D099465
:10075000DC011C968D919C911D97DC01ED91FC9123
:100760000484F585E02D0994DC011C968D919C9103
:100770001D97DC01ED91FC910680F781E02D099435
:10078000DC011C968D919C911D97DC01ED91FC91F3
:100790000084F185E02D0994DC0114968D919C91E3
:1007A0001597DC01ED91FC910190F081E02D099409
:1007B000089580E090E00895CF92DF92EF92FF924B
:1007C0000F931F93CF93DF93EC0181E08093E702B7
:1007D00088E6809309031092E80210920A0360E011
:1007E0008BE093E00E94210381E00E94300C87E0BF
:1007F00090E00E948D0C8BE093E00E94D5028F77F1
:10080000982F92959F701AEF082F919F000D112439
:100810008BE093E00E94D5029C01332794E035954C
:1008200027959A95E1F7F82E129FF00C11248BE092
:1008300093E00E94D5029C01332744E0359527952B
:100840004A95E1F7E82E129FE00C11248BE093E02B
:100850000E94D5028BE093E00E94D5029C013327D1
:1008600054E0359527955A95E1F7D82E129FD00C74
:1008700011248BE093E00E94D5029C01332764E0B1
:10088000359527956A95E1F7C82E129FC00C112463
:100890008BE093E00E94D5029C01332774E03595EC
:1008A00027957A95E1F7129F800D11248883C982DC
:1008B000DA82EB82FC820D83CE01DF91CF911F9112
:1008C0000F91FF90EF90DF90CF900895EF92FF92FD
:1008D0000F931F93CF93DF931F92CDB7DEB77C01A9
:1008E000FC010481158186819781080F191FC801B9
:1008F00069830E94CD156981861719F0C8010E948D
:10090000D515F7018681978101969783868381E0CB
:1009100090E00F90DF91CF911F910F91FF90EF909A
:100920000895CF93DF93EC012A8130E0888199818B
:100930000E947811688179818A819B81DF91CF91B2
:100940000895CF93DF93EC012A8130E0AB01770F5C
:10095000660B770B888199810E9485116881798166
:100960008A819B81DF91CF910895CF93DF93EC0132
:10097000888199810E94CF11688179818A819B81C8
:10098000DF91CF9108951F920F920FB60F9211240D
:100990002F933F938F939F93AF93BF9380919A022E
:1009A00090919B02A0919C02B0919D02309199027E
:1009B00023E0230F2D3720F40196A11DB11D05C0A2
:1009C00026E8230F0296A11DB11D20939902809362
:1009D0009A0290939B02A0939C02B0939D028091F7
:1009E0000F0490911004A0911104B091120401968B
:1009F000A11DB11D80930F0490931004A0931104C6
:100A0000B0931204BF91AF919F918F913F912F911D
:100A10000F900FBE0F901F9018950F931F93CF93B9
:100A20008C0181E08093E70288E6809309031092AD
:100A3000E80210920A0360E08BE093E00E94210339
:100A4000F8012581CAE0822F6C2F0E944C17682F75
:100A5000660F860F682F660F620F8BE093E00E948F
:100A60002103F8012481822F6C2F0E944C17682FDC
:100A7000660F860F682F660F620F8BE093E00E946F
:100A80002103F8012381822F6C2F0E944C17682FBD
:100A9000660F860F682F660F620F8BE093E00E944F
:100AA000210360E08BE093E00E942103F8012281A2
:100AB000822F6C2F0E944C17682F660F860F682FAD
:100AC000660F620F8BE093E00E942103F801218101
:100AD000822F6C2F0E944C17682F660F860F682F8D
:100AE000660F620F8BE093E00E942103F8012081E2
:100AF000822F6C2F0E944C17682F660F860F682F6D
:100B0000660F620F8BE093E00E94210381E0CF919A
:100B10001F910F910C94300CFC01908190539A30EE
:100B200008F090E0818180532AE0929F800D11248B
:100B300008951F920F920FB60F9211242F933F9397
:100B40004F935F936F937F938F939F93AF93BF93D5
:100B5000EF93FF938091B900887F803609F49CC0A1
:100B600068F5883209F45BC090F4803109F454C010
:100B700038F4882309F4F6C0883009F44DC0F6C073
:100B8000883109F44CC0803209F45DC0EFC0803474
:100B900009F468C048F4803309F455C0883309F07B
:100BA000E5C08093E402D8C0803509F44FC0883591
:100BB00009F45DC0883409F0D9C0D6C0883909F479
:100BC000C7C0A8F4883709F467C038F4883609F438
:100BD00063C0803709F460C0C9C0883809F4B8C060
:100BE000803909F45FC0803809F0C0C05BC0803B29
:100BF00009F486C038F4803A09F466C0883A09F4EA
:100C00007FC0B4C0803C09F4A7C0883C09F4A4C0EC
:100C1000883B09F48AC0AAC08091C10210C090919B
:100C2000E3028091E202981770F5E091E30281E01F
:100C30008E0F8093E302F0E0EE53FD4F80818093AE
:100C4000BB0085EC86C08093E4028EC0E091E30295
:100C500081E08E0F8093E3028091BB00F0E0EE53C1
:100C6000FD4F80839091E3028091E2026EC0E0919B
:100C7000E30281E08E0F8093E3028091BB00F0E0FD
:100C8000EE53FD4F80838091E50281116DC081E0BC
:100C90008093C00284EA61C083E08093E6021092F0
:100CA0009802CFCF80919802803208F051C0E09135
:100CB000980281E08E0F809398028091BB00F0E053
:100CC000E858FD4F8083BDCF85EC8093BC00109227
:100CD000E60280919802803230F4E0919802F0E0D0
:100CE000E858FD4F10826091980270E0E091760222
:100CF000F091770288E792E009951092980236C049
:100D000084E08093E6021092750210927402E091E2
:100D10007202F0917302099580917402811105C0ED
:100D200081E08093740210925202E091750281E09A
:100D30008E0F80937502F0E0EE5AFD4F8081809314
:100D4000BB009091750280917402981708F479CFD6
:100D500085E88093BC000AC085EC8093BC001092AB
:100D6000E60204C01092E4020E949302FF91EF9108
:100D7000BF91AF919F918F917F916F915F914F91B3
:100D80003F912F910F900FBE0F901F901895CF930A
:100D9000DF93EC01DB018AE0E881F98190819053D7
:100DA0009A30C0F44D915C911197849F9001859F7A
:100DB000300D112411963C932E93205331099191BB
:100DC000290F311D97FD3A9511963C932E93F98387
:100DD000E883E2CFDF91CF910895DC01ED91FC91A2
:100DE00011979F012E5F3F4F2D933C9380819181FE
:100DF0000895CF93DF93EC016EE671E088819981CD
:100E00000E941A11688179818A819B81DF91CF913B
:100E10000895EF92FF920F931F93CF93DF938C016E
:100E2000DC01ED90FC90EB01FE01649161110CC0BE
:100E3000D8016D917D918D919C91DF91CF911F9102
:100E40000F91FF90EF900895D701ED91FC910190E3
:100E5000F081E02DC70109952196892B29F7E8CF6C
:100E6000CF92DF92EF92FF920F931F93CF93DF9376
:100E7000CDB7DEB764970FB6F894DEBF0FBECDBF17
:100E80008C01CE0101960E94DC03CE0101960E94E6
:100E900055026801012E000CEE08FF08AB01BC01F1
:100EA0004C0D5D1D6E1D7F1DCE0107960E94C20177
:100EB000CE0107960E940D0580EA92E00E94E20BA7
:100EC0006F83788789879A87B801CE0107960E9439
:100ED000A1046D877E878F87988B66E972E0CE01CB
:100EE0000D960E940907698B7A8B8B8B9C8BCE01A8
:100EF00041960E94F90664960FB6F894DEBF0FBEC5
:100F0000CDBFDF91CF911F910F91FF90EF90DF90B8
:100F1000CF900895CF93DF93EC01888199810E944F
:100F20001311688179818A819B81DF91CF91089526
:100F3000BF92CF92DF92EF92FF920F931F93CF93C6
:100F4000DF93CDB7DEB72A970FB6F894DEBF0FBE9A
:100F5000CDBFCE0101960E94DC03FC80BD80EE80F7
:100F60008BE08F1528F025E7C22E21E0D22E04C099
:100F700091E7C92E91E0D92E64E070E080E090E026
:100F80000E94C1188C01009749F0FC011082B60143
:100F90000E94991983E0C82ED12C02C0C12CD12CFB
:100FA000F9E0FF1520F080E30E94160C16C08CE0DB
:100FB0008F1598F481E094E098878F838AE0898781
:100FC00082E08A878F2D6CE00E944C17692F70E0B9
:100FD000CE0107960E94A10403C08F2D0E94FC0B36
:100FE0006F83788789879A876AE3CE0107960E9484
:100FF0008A07E9E0EB1518F080E30E94160C8B2DB0
:101000000E94FC0B6F83788789879A876AE3CE01F9
:1010100007960E948A07F9E0FE1518F080E30E9407
:10102000160C8E2D0E94FC0BE0910104F09102043D
:101030000280F381E02DA601B80181E094E00995DA
:10104000C8012A960FB6F894DEBF0FBECDBFDF9160
:10105000CF911F910F91FF90EF90DF90CF90BF90B5
:101060000C942918CF93DF93EC012A8130E0462FAE
:1010700050E060E070E0888199810E947811688179
:1010800079818A819B81DF91CF9108958F929F9280
:10109000BF92CF92DF92EF92FF920F931F93CF9365
:1010A000DF93CDB7DEB7C457D1090FB6F894DEBFD2
:1010B0000FBECDBFCE0107960E94DC030E94DB105D
:1010C000882309F449C381E080932003E0911A0347
:1010D000F0911B031081163609F49AC00CF084C0FD
:1010E0001D3409F4BFC23CF4143409F4DAC21634D6
:1010F00009F48EC032C3193509F4FEC2143609F062
:101100002CC3CE0101960E94DC0389814B816A8148
:1011100090E00E942002069667E070E00E94581757
:10112000FC01EE0FFF1FE45DFE4F6591749184E3B7
:1011300092E00E94731464E372E081E094E00E9404
:10114000CF1101E014E01E870D879AE0D92EDF86CB
:1011500022E0E22EE88A69E771E0CE010D960E9456
:10116000B504EA81F0E0EE0FFF1FEC5EFE4F6591E3
:10117000749184E392E00E947314498150E04A0123
:1011800020E3821A28EF920AFB8064E372E0C80130
:101190000E94CF111A8B098BDB8AEC8A60E2CE01A8
:1011A00041960E948A076D877E878F87988B6F2D67
:1011B000CE010D960E943208B62EC72EF82E6AE791
:1011C00071E08B2D9C2D0E94CF118B2D9C2D2F2DEE
:1011D00030E0A401990C660B770B0E9478111A83FA
:1011E0000983DB82EC825AC0133709F4A8C13CF4AE
:1011F000183609F417C21D3609F4DCC1AEC2153722
:1012000009F451C00CF440C0193709F475C2A5C2E5
:101210004F8150E06A0120E3C21A28EFD20A1985F3
:1012200088850E94FC0B69837A838B839C836FE2A1
:10123000CE0101960E948A076D877E878F87988BE3
:10124000612FCE010D960E943208698B7A8B8B8BB1
:101250009C8B6FE2CE0141960E948A07F82EE92E00
:101260008B01282F30E0A601DD0C660B770BC8013F
:101270000E9478110D8B1E8BFF8AE88E69E771E062
:10128000CE0145960E94B5040E94980781E094E043
:101290009A8389838AE08B8382E08C83CE010196D6
:1012A0000E94F9067CC2CE0101960E94DC03CE01A9
:1012B00001960E9455026B017C0187E691E00E9435
:1012C000E20BE5966CAF7DAF8EAF9FAFE597CE0199
:1012D0008F589F4F0E94F906E1966CAF7DAF8EAF9D
:1012E0009FAFE1976CE771E0CE0183599F4F0E9459
:1012F000B504AD966CAF7DAF8EAF9FAFAD97B70124
:10130000A601CE0187599F4F0E949104A9966CAF08
:101310007DAF8EAF9FAFA9976EE571E0CE018B597F
:101320009F4F0E940907A5966CAF7DAF8EAF9FAF10
:10133000A597CE018F599F4F0E94F906A1966CAFD9
:101340007DAF8EAF9FAFA1976CE771E0CE01835A5E
:101350009F4F0E94B5046D966CAF7DAF8EAF9FAF6F
:101360006D97C701B6012CE330E040E050E00E94E9
:101370006C17BA01A901CE01875A9F4F0E949104B0
:1013800069966CAF7DAF8EAF9FAF699765E571E0F1
:10139000CE018B5A9F4F0E94090765966CAF7DAFB7
:1013A0008EAF9FAF6597CE018F5A9F4F0E94F9066F
:1013B00061966CAF7DAF8EAF9FAF61976CE771E0C8
:1013C000CE01835B9F4F0E94B5042D966CAF7DAF1D
:1013D0008EAF9FAF2D97C701B60120E13EE040E000
:1013E00050E00E946C17BA01A901CE01875B9F4FA4
:1013F0000E94910429966CAF7DAF8EAF9FAF299765
:101400006EE471E0CE018B5B9F4F0E940907259629
:101410006CAF7DAF8EAF9FAF2597CE018F5B9F4F97
:101420000E94F90621966CAF7DAF8EAF9FAF2197DA
:101430006CE771E0CE01CD960E94B50469AF7AAF3A
:101440008BAF9CAFC701B60120E831E541E050E029
:101450000E946C17BA01A901CE01C9960E9491049D
:101460006DAB7EAB8FAB98AF68E471E0CE01C596F3
:101470000E94090769AB7AAB8BAB9CABCE01C196DE
:101480000E94F9066DA77EA78FA798AB6CE771E065
:10149000CE018D960E94B50469A77AA78BA79CA759
:1014A000C701B60120E83AE349E050E00E946C171A
:1014B000BA01A901CE0189960E9491046DA37EA371
:1014C0008FA398A761E471E0CE0185960E94090779
:1014D00069A37AA38BA39CA3CE0181960E94F906EF
:1014E0006D8F7E8F8F8F98A36CE771E0CE014D9644
:1014F0000E94B504698F7A8F8B8F9C8FC701B601CC
:1015000020EE37E841EE51E00E946C17BA01A901C4
:10151000CE0149960E9491046D8B7E8B8F8B988FA4
:101520006AE371E0CE0145960E940907698B7A8BC8
:101530008B8B9C8BCE0141960E94F9066CC00E9459
:1015400003117C016FE771E081E094E00E94CF110C
:1015500081E094E09A8389838AE08B8382E08C83A4
:10156000B701CE0101960E94A104C62E072FD82EE6
:10157000192F62E971E08C2D902F0E94CF11CD863A
:101580000E87DF86188BCE010D960E94F906CE01DC
:1015900007960E9455028701FF0C220B330BAB010B
:1015A000BC01400F511F621F731FCE0101960E94A4
:1015B000C201CDC00E9403117C0118161906C4F4A3
:1015C0008EE691E09F938F93FF92EF928CE991E0EA
:1015D0009F938F9381E094E09F938F930E941C0DC3
:1015E0008CE3382F3E9DC0013F9D900D112437C0E4
:1015F00067EB71E081E094E00E94CF1181E094E01C
:101600009A8389838AE08B8382E08C83B701CE0141
:1016100001960E94A1046D877E878F87988BCE01EB
:101620000D963ECE0E9403118C018EE691E09F93B1
:101630008F931F930F9387EC91E09F938F9381E09B
:1016400094E09F938F930E941C0D80E19EE0FC012B
:101650000E9FC0010F9F900D1E9F900D11240E94A0
:10166000300744C00E9403118C010D9708F097C009
:101670008EE691E09F938F931F930F9380EE91E0FE
:101680009F938F9381E094E09F938F930E941C0D12
:101690008C859B852A8539854F8149830A833B83C5
:1016A0001EC00E9403118C014F9708F078C08EE68F
:1016B00091E09F938F931F930F9389EF91E09F93F6
:1016C0008F9381E094E09F938F930E941C0D8C85F3
:1016D0009B852A8538854F8149833A830B832C83E8
:1016E0009D838E83CE0101960E940D050FB6F8945E
:1016F000DEBF0FBECDBF53C00E940311182F092FAC
:101700008EE691E09F938F930F931F9380E192E079
:101710009F938F9381E094E09F938F930E941C0D81
:101720008C859B854A855885212F302F0FB6F894DC
:10173000DEBF0FBECDBF203DF7E03F0710F0205DBC
:10174000374029835A831B834C839D838E83CE012C
:1017500001960E940D0523C010E084E892E00E94EB
:10176000E20B69837A838B839C83612FCE01019680
:101770000E948A076D877E878F87988BCE010D9692
:101780000E94F9060CE711E0F2E003381F0739F078
:10179000F80184910E94160C0F5F1F4FF5CFCC58B3
:1017A000DF4F0FB6F894DEBF0FBECDBFDF91CF91F4
:1017B0001F910F91FF90EF90DF90CF90BF909F907F
:1017C0008F900895CF93DF9300D000D0CDB7DEB7D0
:1017D00021E034E03A8329832AE02B8322E02C8322
:1017E000BC01CE0101960E9409070F900F900F9047
:1017F0000F90DF91CF910895CF93DF9300D000D069
:10180000CDB7DEB721E034E03A8329839AE09B83A9
:1018100092E09C83682FCE0101960E9432080F90BF
:101820000F900F900F90DF91CF910895CF93DF939A
:1018300000D000D0CDB7DEB721E034E03A83298371
:101840009AE09B8392E09C83682FCE0101960E94D0
:101850008A070F900F900F900F90DF91CF9108950E
:10186000382F20910A0390910903213208F049C0D2
:101870008091E6028111FCCF42E04093E602309372
:10188000E5023FEF3093E4021092E3022093E2027C
:10189000A9EEB2E042EC52E0FA013E2F341B3217BF
:1018A00018F43D913193F9CF1092C1022091C102F9
:1018B000990F922B9093C1029091C002913061F4E4
:1018C0001092C0029091C1029093BB009091BC0015
:1018D00093FDF8CF95EC01C095EE9093BC009091EC
:1018E000E6029230E1F39091E4029F3F79F080911B
:1018F000E402803241F08091E402803331F084E0F0
:1019000005C081E003C082E001C083E01092E802DC
:1019100010920A031092E70208959091E602911145
:10192000FCCF813208F080E291E09093E602909340
:10193000E5022FEF2093E4021092E302280F209398
:10194000E2029093C1029091C102906D9093C10206
:101950009091C002913061F41092C0029091C10246
:101960009093BB009091BC0093FDF8CF95EC01C023
:1019700095EE9093BC009091E6029130E1F3909146
:10198000E302981710F48091E302A2ECB2E020EA9F
:1019900032E0F9019E2F921B981718F49D919193B4
:1019A000F9CF10929F0280939E02089590E0FC016F
:1019B000E051FD4F2491FC01E452FD4F3491FC01B4
:1019C000E853FD4FE491EE23B1F1222339F12330A6
:1019D00091F038F42130A9F0223001F584B58F7DE3
:1019E00012C0273091F02830A1F02430B9F4809152
:1019F00080008F7D03C0809180008F77809380006E
:101A00000DC084B58F7784BD09C08091B0008F77F9
:101A100003C08091B0008F7D8093B000F0E0EE0FA6
:101A2000FF1FE254FD4FA591B4918FB7F894EC914C
:101A30003E2B3C938FBF08952F923F924F925F921F
:101A40006F927F928F929F92AF92BF92CF92DF92CE
:101A5000EF92FF920F931F93CF93DF93CDB7DEB733
:101A6000E8970FB6F894DEBF0FBECDBFCE018F5AF8
:101A70009F4F98AF8FAB1EA61DA680E391E09CA759
:101A80008BA781E094E098AB8FA761968EAD9FAD58
:101A900061979EAB8DAB10E0CE0101964C0128E121
:101AA000222E21E0322EEDA9FEA96081662309F4E1
:101AB0002CC2653209F044C2CF0101969EAB8DABBA
:101AC0001CAA1BAA8181811103C0FEABEDAB17C21A
:101AD000853211F465E234C28D3231F43296FEABB8
:101AE000EDABBB24B39401C0B12CEDA9FEA980815C
:101AF000803331F43196FEABEDAB9B2D9260B92E65
:101B0000EDA9FEA980818A3209F020C23196FEAB90
:101B1000EDABCE01C7960E94ED069CAB8BABB1FC42
:101B200003C090E2A92E02C080E3A82E98A68FA23F
:101B30001AA619A61EA21DA284E291E09CA38BA363
:101B40001AAA19AAEDA9FEA980818E3251F4319604
:101B5000FEABEDABBE016F5C7F4FCE01C5960E9420
:101B6000C706EDA9FEA980818C3629F43196FEAB1B
:101B7000EDAB01E001C000E0EDA9FEA98081833753
:101B800081F4CE01C7960E94ED06FC010190002071
:101B9000E9F73197E81BF90B98A78FA3FAA7E9A7F4
:101BA0006DC1803791F4CE01C7960E94ED062EE1FB
:101BB00031E03A8F298F9C8F8B8FBE01655D7F4FFF
:101BC000CE0149960E9450039AC18237D1F4EBA806
:101BD000FCA8CE01C7960E94ED069E8F8D8FF8A2BD
:101BE000EF8E1C8E1B8E8AE091E09A8F898F3AA22D
:101BF00029A2BE01655D7F4FCE0149960E94291240
:101C00007EC18E36E9F4CE01C7960E94ED06F82E0D
:101C1000E92E2BA93CA9C90101979CAB8BAB232BC7
:101C200009F46DC16F2D002331F07E2DCE018B960E
:101C30000E94CF11EECFCE018B960E941311E9CFF7
:101C4000843611F08936E1F4002359F0EFA9F8AD9C
:101C5000CF01049698AF8FAB40815181628173812F
:101C600008C0CE01C7960E94ED06AC01990F660B25
:101C7000770B2AE030E0CE0183960E948511FEC0EA
:101C80008537B9F4EFA9F8ADCF01002341F00496F0
:101C900098AF8FAB408151816281738107C00296FA
:101CA00098AF8FAB4081518160E070E02AE030E076
:101CB000D3C0863609F0B8C009A9EFA9F8ADCF01A5
:101CC000049698AF8FABC080D180E280F380A701EB
:101CD0009601C701B6010E944717882319F068E2F0
:101CE00072E027C026013701E89477F82FEF3FEF25
:101CF0004FE75FE7C301B2010E94471781110DC092
:101D00002FEF3FEF4FE75FE7C301B2010E94A91435
:101D100018161CF46CE272E00CC02FEF3FEF4FE797
:101D20005FE4C701B6010E94421718163CF460E355
:101D300072E0CE0183960E941A11A0C02FEF3FEFF0
:101D40004FE75FECC701B6010E94A91487FDEFCFF2
:101D500020E030E0A901C701B6010E94A91487FF65
:101D600009C06DE2CE0183960E941311F7FAF09438
:101D7000F7F8F094712C60E070E080E09FE370165B
:101D800040F420E030E040E251E40E94A116739458
:101D9000F6CF9B01AC01C701B6010E9435166B015D
:101DA0007C010E9413172B013C010E94AE149B0181
:101DB000AC01C701B6010E9434166B017C012AE018
:101DC000B301A201CE0183960E942F11002329F0B6
:101DD0006EE2CE0183960E941311002309F44EC0D7
:101DE00020E030E040E251E4C701B6010E940F1547
:101DF0006B017C010E9413172B01612C712C2AE0CE
:101E0000B301A201CE0183960E942F11C301B2013A
:101E10000E94AE149B01AC01C701B6010E943416AA
:101E20006B017C010150D9CF8837D9F4EFA9F8AD07
:101E3000CF01002341F0049698AF8FAB40815181D0
:101E40006281738107C0029698AF8FAB4081518148
:101E500060E070E020E130E0CE0183960E947811CE
:101E60000DC0833659F4CE01C7960E94ED068983D2
:101E700098A68FA281E090E09AA789A7E9A4FAA486
:101E80008BA99CA9E816F90618F01CAA1BAA04C085
:101E90008E199F099CAB8BABB0FC0EC00BA9002325
:101EA00039F06A2DCE018B960E94CC030150F7CFFA
:101EB0008BA9180F1CAA1BAA2FA138A589A59AA522
:101EC000AC014F5F5F4F5AA749A7F901E80FF91F0F
:101ED00010826FA178A5A701CE018B960E94AE0F4C
:101EE000810F911D8C01FBA8FF2039F06A2DCE01D6
:101EF0008B960E94CC03FA94F7CF1BA9100F8DA9E3
:101F00009EA901969EAB8DABCECD812F90E0E89639
:101F10000FB6F894DEBF0FBECDBFDF91CF911F91FA
:101F20000F91FF90EF90DF90CF90BF90AF909F9078
:101F30008F907F906F905F904F903F902F9008957B
:101F4000CE018B960E94CC031F5FD9CFBE016D5C82
:101F50007F4FCE01C5960E94C706E1CDCF92DF929A
:101F6000EF92FF920F931F93CF93DF936C017A014F
:101F70008B01C0E0D0E0CE15DF0589F0D8016D916E
:101F80008D01D601ED91FC910190F081E02DC6010B
:101F90000995892B11F47E0102C02196ECCFC7016F
:101FA000DF91CF911F910F91FF90EF90DF90CF9035
:101FB0000895FC01538D448D252F30E0842F90E04F
:101FC000821B930B541710F0CF9608950197089534
:101FD000FC01918D828D981761F0828DDF01A80F31
:101FE000B11D5D968C91928D9F5F9F73928F90E053
:101FF00008958FEF9FEF0895FC01918D828D9817C2
:1020000031F0828DE80FF11D858D90E008958FEFFE
:102010009FEF0895FC01918D228D892F90E0805CC7
:102020009F4F821B91098F739927089584E693E04F
:102030000E940A1021E0892B09F420E0822F0895E4
:10204000FC01848DDF01A80FB11DA35ABF4F2C9155
:10205000848D90E001968F739927848FA689B78924
:102060002C93A089B1898C9180648C93938D848DFD
:10207000981306C00288F389E02D80818F7D8083CC
:102080000895EF92FF920F931F93CF93DF93EC018C
:1020900081E0888F9B8D8C8D981305C0E889F98924
:1020A000808185FD24C0F62E0B8D10E00F5F1F4F41
:1020B0000F731127E02E8C8DE8120CC00FB607FCB1
:1020C000FACFE889F989808185FFF5CFCE010E949A
:1020D0002010F1CF8B8DFE01E80FF11DE35AFF4F69
:1020E000F0820B8FEA89FB898081806207C0EE89CC
:1020F000FF896083E889F98980818064808381E039
:1021000090E0DF91CF911F910F91FF90EF90089594
:10211000CF93DF93EC01888D8823C9F0EA89FB898E
:10212000808185FD05C0A889B9898C9186FD0FC085
:102130000FB607FCF5CF808185FFF2CFA889B9895A
:102140008C9185FFEDCFCE010E942010E7CFDF916B
:10215000CF91089580E090E0892B29F00E9416101D
:1021600081110C94000008953FB7F89480910F04FA
:1021700090911004A0911104B091120426B5A89B6F
:1021800005C02F3F19F00196A11DB11D3FBFBA2F09
:10219000A92F982F8827820F911DA11DB11DBC0169
:1021A000CD0142E0660F771F881F991F4A95D1F72E
:1021B00008950E948B1980911703882319F18130AB
:1021C00031F482E08093170382E293E002C080E062
:1021D00090E020912003222351F04CE153E06EE186
:1021E00073E00E947A1490931B0380931A038091EA
:1021F0001A0390911B03892B21F01092200381E098
:10220000089580E008950E94DB10882349F081E062
:102210008093200380911A0390911B030C944C141B
:1022200080E090E00895DC01ED91FC910190F08157
:10223000E02D09946115710579F0FB0101900020F2
:10224000E9F73197AF01461B570BDC01ED91FC918B
:102250000280F381E02D099480E090E008954F9290
:102260005F926F927F92EF92FF920F931F93CF93A3
:10227000DF93CDB7DEB7A1970FB6F894DEBF0FBEE0
:10228000CDBF7C01FA01CB0119A2223008F42AE06B
:102290008E010F5D1F4F422E512C612C712CBF01FE
:1022A000A30192010E946C17F901CA0101501109A2
:1022B0006A3014F4605D01C0695CD8016C93232B13
:1022C000242B252B61F7B801C7010E941A11A19692
:1022D0000FB6F894DEBF0FBECDBFDF91CF911F9137
:1022E0000F91FF90EF907F906F905F904F900895C7
:1022F0002115310541F4DC01ED91FC910190F08153
:10230000E02D642F09940C942F11CF92DF92EF925D
:10231000FF920F931F93CF93DF93EC016A017B0130
:102320002115310579F4E881F9810190F081E02DE2
:10233000642FDF91CF911F910F91FF90EF90DF906D
:10234000CF9009942A303105E9F477FF1AC06DE285
:102350000E9413118C0144275527BA014C195D09BD
:102360006E097F092AE0CE010E942F11800F911F74
:10237000DF91CF911F910F91FF90EF90DF90CF9061
:1023800008952AE0B701A601CE01DF91CF911F91F8
:102390000F91FF90EF90DF90CF900C942F110C9441
:1023A0001A111F920F920FB60F9211242F933F9381
:1023B0004F935F936F937F938F939F93AF93BF934D
:1023C000EF93FF9384E693E00E942010FF91EF913A
:1023D000BF91AF919F918F917F916F915F914F913D
:1023E0003F912F910F900FBE0F901F9018951F9245
:1023F0000F920FB60F9211242F938F939F93EF9309
:10240000FF93E0917403F09175038081E0917A036A
:10241000F0917B0382FD12C0908180917D038F5FDC
:102420008F7320917E03821751F0E0917D03F0E0DD
:10243000EC59FC4F958F80937D0301C08081FF9103
:10244000EF919F918F912F910F900FBE0F901F9042
:102450001895EF92FF920F931F93CF93DF938C0108
:102460007B01C0E0D0E0F80186819781C817D907C9
:10247000A0F4D80114968D919C9115978C0F9D1FF7
:102480000E94CD15D701ED91FC910190F081E02DD6
:10249000682FC70109952196E6CFDF91CF911F9153
:1024A0000F91FF90EF90089508970C942912E4E69D
:1024B000F3E01382128248EE53E060E070E0448360
:1024C0005583668377838CE391E09183808385ECE9
:1024D00090E09587848784EC90E09787868780ECEE
:1024E00090E0918B808B81EC90E0938B828B82ECDF
:1024F00090E0958B848B86EC90E0978B868B118E89
:10250000128E138E148EABE0B3E013961C921E92C3
:10251000129714964D935D936D937C9317978EE469
:1025200091E08D939C93A1E0B4E013961C921E92CF
:10253000129714964D935D936D937C93179780E655
:1025400091E011969C938E931D96FC93EE931C97AD
:10255000E7E1F3E01282118280E28783108680E453
:10256000809362038FE38093630312861082148248
:1025700013821682158281E081870895CF93DF93BD
:10258000CDB7DEB761970FB6F894DEBF0FBECDBFF3
:10259000789484B5826084BD84B5816084BD85B53E
:1025A000826085BD85B5816085BD80916E0081604A
:1025B00080936E00109281008091810082608093F0
:1025C00081008091810081608093810080918000F2
:1025D0008160809380008091B10084608093B1001D
:1025E0008091B00081608093B00080917A00846017
:1025F00080937A0080917A00826080937A00809143
:102600007A00816080937A0080917A00806880935C
:102610007A001092C100E0917403F091750382E09A
:102620008083E0917003F09171031082E091720356
:10263000F091730380E1808310927C03E091780332
:10264000F091790386E08083E0917603F09177033F
:10265000808180618083E0917603F09177038081AF
:1026600088608083E0917603F091770380818068B1
:102670008083E0917603F091770380818F7D808362
:1026800086E498E0909319038093180310929F02B8
:1026900010929E021092E80210920A031092E60233
:1026A00011E01093E5021092C00282E10E94D60C64
:1026B00083E10E94D60C8091B9008E7F8093B9008F
:1026C0008091B9008D7F8093B90088E48093B80031
:1026D00085E48093BC001093E70288E680930903A9
:1026E0001092E80210920A0360E08BE093E00E94EF
:1026F000210381E00E94300C81E090E00E948D0C6B
:102700008BE093E00E94D50287FF6DC089E193E0E2
:102710000E94E20B69837A838B839C83CE010196AE
:102720000E94F9064BE050E06DE073E0CE010196A7
:102730000E946A14CE010A960E948C058C87E9815A
:102740008E2FEE0F990BAA0BBB0BFC01E154F10984
:10275000E331F10540F5EC5CFF4F0C948E178A8154
:10276000813639F08B818E3611F087E01BC086E010
:1027700019C081E017C082E015C08B81823711F04B
:1027800088E010C084E00EC08B81823711F085E0B4
:1027900009C083E007C089E005C08AE003C08BE080
:1027A00001C08CE08D87CE0105960E948C058E8736
:1027B00048E050E064E073E0CE0101960E946A14A4
:1027C000CE0101960E948C058F87CE0104960E944F
:1027D0008C05888BCE0107960E948C05898BCE01D3
:1027E0000C960E940D05FF24F39402E213E084E6A8
:1027F00093E00E940A10892B09F44BC084E693E011
:102800000E94E80F1092170318161906A4F58A30D3
:10281000910589F1E09121038D30910599F4F0E063
:10282000E95EFC4F13861092210310921D03109253
:102830001C03F0922003F092170310931B030093E4
:102840001A0319C0AE2FB0E0A95EBC4F1B968C9343
:10285000EF5FE093210380916303E81760F010922B
:10286000210310921B0310921A0310921D03109261
:102870001C03F092200380911703813009F0B7CF39
:10288000E0911803F0911903309709F4B0CF09953E
:10289000AECF0E94AA10ABCFFC0188279927E894FD
:1028A00021912032E9F3293010F02E30C8F32B3279
:1028B00041F02D3239F4689404C00E94A114820FB3
:1028C000911D219120532A30C0F31EF490958195DB
:1028D0009F4F0895FB01DC0102C005900D9241500D
:1028E0005040D8F70895FB01DC0105900D920020BF
:1028F000E1F70895FA01A191B081009719F41097BA
:10290000E1F0CD01DC01CD010D90002011F4C001FA
:1029100013C0FB012191222319F02015D9F7F3CF21
:10292000FB012191201519F41E92119606C0222355
:10293000C1F70D900020A1F7D001FA01A193B08357
:1029400008957AE0979F902D879F802D910D1124F7
:1029500008950E94EB1408F481E00895E89409C0FA
:1029600097FB3EF490958095709561957F4F8F4FC2
:102970009F4F9923A9F0F92F96E9BB279395F695D8
:10298000879577956795B795F111F8CFFAF4BB0F56
:1029900011F460FF1BC06F5F7F4F8F4F9F4F16C0BA
:1029A000882311F096E911C0772321F09EE8872F44
:1029B000762F05C0662371F096E8862F70E060E000
:1029C0002AF09A95660F771F881FDAF7880F969579
:1029D000879597F90895990F0008550FAA0BE0E81D
:1029E000FEEF16161706E807F907C0F012161306D1
:1029F000E407F50798F0621B730B840B950B39F411
:102A00000A2661F0232B242B252B21F408950A2676
:102A100009F4A140A6958FEF811D811D08950E94A4
:102A200022150C9493150E94851538F00E948C1580
:102A300020F0952311F00C947C150C948215112430
:102A40000C94C7150E94A41570F3959FC1F3950FC0
:102A500050E0551F629FF001729FBB27F00DB11D22
:102A6000639FAA27F00DB11DAA1F649F6627B00DB2
:102A7000A11D661F829F2227B00DA11D621F739F9B
:102A8000B00DA11D621F839FA00D611D221F749FA9
:102A90003327A00D611D231F849F600D211D822FF0
:102AA000762F6A2F11249F5750409AF0F1F0882317
:102AB0004AF0EE0FFF1FBB1F661F771F881F915044
:102AC0005040A9F79E3F510580F00C947C150C9462
:102AD000C7155F3FE4F3983ED4F3869577956795E5
:102AE000B795F795E7959F5FC1F7FE2B880F911D6E
:102AF0009695879597F9089597F99F6780E870E014
:102B000060E008959FEF80EC089500240A94161663
:102B1000170618060906089500240A9412161306CB
:102B2000140605060895092E0394000C11F4882359
:102B300052F0BB0F40F4BF2B11F460FF04C06F5F75
:102B40007F4F8F4F9F4F089557FD9058440F551F4B
:102B500059F05F3F71F04795880F97FB991F61F01F
:102B60009F3F79F087950895121613061406551F96
:102B7000F2CF4695F1DF08C0161617061806991F02
:102B8000F1CF86957105610508940895E894BB27F7
:102B900066277727CB0197F90895F999FECF92BD63
:102BA00081BDF89A992780B50895262FF999FECF0F
:102BB0001FBA92BD81BD20BD0FB6F894FA9AF99A5A
:102BC0000FBE019608950E942516A59F900DB49FF3
:102BD000900DA49F800D911D112408952F923F9276
:102BE0004F925F926F927F928F929F92AF92BF921D
:102BF000CF92DF92EF92FF920F931F93CF93DF93C9
:102C0000CDB7DEB7CA1BDB0B0FB6F894DEBF0FBE25
:102C1000CDBF09942A88398848885F846E847D8472
:102C20008C849B84AA84B984C884DF80EE80FD8074
:102C30000C811B81AA81B981CE0FD11D0FB6F894EA
:102C4000DEBF0FBECDBFED010895A29FB001B39FBF
:102C5000C001A39F700D811D1124911DB29F700DA5
:102C6000811D1124911D08955058BB27AA270E9449
:102C70004C160C9493150E94851538F00E948C1503
:102C800020F039F49F3F19F426F40C9482150EF4C9
:102C9000E095E7FB0C947C15E92F0E94A41558F3EE
:102CA000BA17620773078407950720F079F4A6F531
:102CB0000C94C6150EF4E0950B2EBA2FA02D0B0127
:102CC000B90190010C01CA01A0011124FF27591B71
:102CD00099F0593F50F4503E68F11A16F040A22F77
:102CE000232F342F4427585FF3CF469537952795E8
:102CF000A795F0405395C9F77EF41F16BA0B620BE7
:102D0000730B840BBAF09150A1F0FF0FBB1F661F2D
:102D1000771F881FC2F70EC0BA0F621F731F841F70
:102D200048F4879577956795B795F7959E3F08F096
:102D3000B0CF9395880F08F09927EE0F9795879558
:102D400008950E94B5160C9493150E948C1558F0A6
:102D50000E94851540F029F45F3F29F00C947C1502
:102D600051110C94C7150C9482150E94A41568F398
:102D70009923B1F3552391F3951B550BBB27AA2734
:102D800062177307840738F09F5F5F4F220F331F6E
:102D9000441FAA1FA9F335D00E2E3AF0E0E832D036
:102DA00091505040E695001CCAF72BD0FE2F29D039
:102DB000660F771F881FBB1F261737074807AB070B
:102DC000B0E809F0BB0B802DBF01FF2793585F4F80
:102DD0003AF09E3F510578F00C947C150C94C71581
:102DE0005F3FE4F3983ED4F3869577956795B79562
:102DF000F7959F5FC9F7880F911D9695879597F96D
:102E00000895E1E0660F771F881FBB1F62177307E5
:102E10008407BA0720F0621B730B840BBA0BEE1FFA
:102E200088F7E09508950E94AC1588F09F5798F0B8
:102E3000B92F9927B751B0F0E1F0660F771F881FBF
:102E4000991F1AF0BA95C9F714C0B13091F00E94D9
:102E5000C615B1E008950C94C615672F782F882702
:102E6000B85F39F0B93FCCF3869577956795B39500
:102E7000D9F73EF490958095709561957F4F8F4F6F
:102E80009F4F08950E94EB1408F48FEF08950E945D
:102E9000EB14880B990B0895991B79E004C0991FD6
:102EA000961708F0961B881F7A95C9F780950895A4
:102EB000AA1BBB1B51E107C0AA1FBB1FA617B70760
:102EC00010F0A61BB70B881F991F5A95A9F780957C
:102ED0009095BC01CD010895A1E21A2EAA1BBB1B3F
:102EE000FD010DC0AA1FBB1FEE1FFF1FA217B307D6
:102EF000E407F50720F0A21BB30BE40BF50B661FEC
:102F0000771F881F991F1A9469F7609570958095AF
:102F100090959B01AC01BD01CF010895EE0FFF1FFD
:102F20000590F491E02D0994CF93DF9382309105C1
:102F300010F482E090E0E0911504F091160420E096
:102F400030E0C0E0D0E0309711F140815181481766
:102F50005907C0F04817590761F48281938120977F
:102F600019F09B838A832BC09093160480931504D9
:102F700026C02115310519F04217530718F49A019C
:102F8000BE01DF01EF010280F381E02DDCCF2115CE
:102F9000310509F1281B390B2430310590F41296C4
:102FA0008D919C9113976115710521F0FB0193831D
:102FB000828304C09093160480931504FD01329619
:102FC00044C0FD01E20FF31F819391932250310918
:102FD0002D933C933AC02091130430911404232B79
:102FE00041F42091020130910301309314042093A5
:102FF000130420910001309101012115310541F4A4
:103000002DB73EB74091040150910501241B350BAB
:10301000E0911304F0911404E217F307A0F42E1BBF
:103020003F0B2817390778F0AC014E5F5F4F24172C
:10303000350748F04E0F5F1F50931404409313045C
:103040008193919302C0E0E0F0E0CF01DF91CF9156
:1030500008950F931F93CF93DF93009709F48CC0CB
:10306000FC0132971382128200911504109116040C
:103070000115110581F420813181820F931F209168
:103080001304309114042817390779F5F0931404C8
:10309000E093130471C0D80140E050E0AE17BF07C1
:1030A00050F412962D913C911397AD0121153105E5
:1030B00009F1D901F3CF9D01DA01338322836081C5
:1030C0007181860F971F8217930769F4EC0128819D
:1030D0003981260F371F2E5F3F4F318320838A812E
:1030E0009B8193838283452B29F4F0931604E0930C
:1030F000150442C01396FC93EE931297ED0149918B
:1031000059919E01240F351FE217F30771F4808156
:103110009181840F951F029611969C938E938281C4
:10312000938113969C938E931297E0E0F0E0D80180
:1031300012968D919C911397009719F0F8018C01CC
:10314000F6CF8D919C9198012E5F3F4F820F931F78
:1031500020911304309114042817390769F430972B
:1031600029F4109216041092150402C013821282E0
:103170001093140400931304DF91CF911F910F91CA
:103180000895A0E0B0E0E7ECF8E10C94F215EC0152
:10319000009721F4CB010E949417B8C0FC01E60F00
:1031A000F71F9C0122503109E217F30708F4ACC065
:1031B000D9010D911C91119706171707B0F0053032
:1031C000110508F49FC0C80104978617970708F4F3
:1031D00099C002501109061B170B019311936D93AF
:1031E0007C93CF010E9429188DC05B01A01AB10AFF
:1031F0004C01800E911EA0911504B091160440E080
:1032000050E0E12CF12C109709F44AC0A815B9053B
:10321000D1F56D907C901197630182E0C80ED11CAE
:10322000CA14DB0480F1A3014A195B096A0182E038
:10323000C80ED11C1296BC9012971396AC91B5E0B3
:10324000CB16D10440F0B282A38351834083D901CD
:103250006D937C930AC00E5F1F4FC301800F911FB7
:10326000F90191838083EB2DFA2FE114F10431F001
:10327000D7011396FC93EE93129744C0F093160473
:10328000E09315043FC08D919C9111974817590701
:1032900008F4AC017D0112960D90BC91A02DB3CF26
:1032A000809113049091140488159905E1F4461750
:1032B0005707C8F48091000190910101009741F4F3
:1032C0008DB79EB74091040150910501841B950B69
:1032D000E817F907C8F4F0931404E0931304F90114
:1032E000718360830FC0CB010E9494177C0100970B
:1032F00059F0A801BE010E949019CE010E94291820
:10330000C70104C0CE0102C080E090E0CDB7DEB7B7
:10331000EEE00C940E1681E090E0F8940C94A01965
:10332000FB01DC0102C001900D9241505040D8F7E2
:103330000895FB01DC0101900D920020E1F7089552
:04334000F894FFCF2F
:10334400000017048000000000006604AE0FD903DB
:10335400D8032912F8FF00005412000000005003A3
:10336400000000007F03AE0FD903D8030000000063
:10337400CC03AE0FD903D803000000004110AE0FF8
:10338400D90F88100A10E80FFC0F00000000210379
:10339400F102D903C502E902D502C6020000000009
:1033A4009003AE0FD903B403C0039C03A8030D0A12
:1033B4000020504D0020414D002C2000202D0041C4
:1033C400646A757374696E672074696D65206279C7
:1033D4002000207365636F6E64732E0041646A7508
:1033E4007374696E67206279202569206D696E7532
:1033F4007465732E257300496E76616C696420656B
:103404006E7472793A200041646A757374696E67E8
:1034140020627920256920686F7572732E257300E8
:1034240041646A757374696E67206D6F6E74682089
:10343400746F2025692E25730041646A757374695D
:103444006E672064617920746F2025692E257300CE
:1034540041646A757374696E67207965617220745A
:103464006F2025692E2573006E616E00696E6600FB
:043474006F76660009
:00000001FF
